{
  "contractName": "MEWMarketplace",
  "abi": [
    {
      "constant": true,
      "inputs": [
        {
          "name": "",
          "type": "address"
        },
        {
          "name": "",
          "type": "uint256"
        }
      ],
      "name": "MEWstoreAddressesByOwner",
      "outputs": [
        {
          "name": "",
          "type": "address"
        }
      ],
      "payable": false,
      "stateMutability": "view",
      "type": "function"
    },
    {
      "constant": true,
      "inputs": [
        {
          "name": "",
          "type": "address"
        }
      ],
      "name": "MEWstoreOwners",
      "outputs": [
        {
          "name": "",
          "type": "bool"
        }
      ],
      "payable": false,
      "stateMutability": "view",
      "type": "function"
    },
    {
      "constant": true,
      "inputs": [
        {
          "name": "",
          "type": "address"
        }
      ],
      "name": "MEWadmins",
      "outputs": [
        {
          "name": "",
          "type": "bool"
        }
      ],
      "payable": false,
      "stateMutability": "view",
      "type": "function"
    },
    {
      "constant": true,
      "inputs": [
        {
          "name": "",
          "type": "uint256"
        }
      ],
      "name": "MEWstoreOwnerRequests",
      "outputs": [
        {
          "name": "",
          "type": "address"
        }
      ],
      "payable": false,
      "stateMutability": "view",
      "type": "function"
    },
    {
      "inputs": [],
      "payable": false,
      "stateMutability": "nonpayable",
      "type": "constructor"
    },
    {
      "payable": true,
      "stateMutability": "payable",
      "type": "fallback"
    },
    {
      "anonymous": false,
      "inputs": [
        {
          "indexed": false,
          "name": "MEWstoreOwnerRequestAddress",
          "type": "address"
        }
      ],
      "name": "MEWStoreOwnerRequestSent",
      "type": "event"
    },
    {
      "anonymous": false,
      "inputs": [
        {
          "indexed": false,
          "name": "MEWstoreOwnerAddress",
          "type": "address"
        }
      ],
      "name": "MEWStoreOwnerAdded",
      "type": "event"
    },
    {
      "anonymous": false,
      "inputs": [
        {
          "indexed": false,
          "name": "",
          "type": "address[]"
        }
      ],
      "name": "MEWStoreOwnerRequestsUpdated",
      "type": "event"
    },
    {
      "anonymous": false,
      "inputs": [
        {
          "indexed": false,
          "name": "owner",
          "type": "address"
        },
        {
          "indexed": false,
          "name": "store",
          "type": "address"
        }
      ],
      "name": "MEWNewStoreCreated",
      "type": "event"
    },
    {
      "constant": true,
      "inputs": [],
      "name": "MEWfetchStoreAddressesByOwner",
      "outputs": [
        {
          "name": "",
          "type": "address[]"
        }
      ],
      "payable": false,
      "stateMutability": "view",
      "type": "function"
    },
    {
      "constant": false,
      "inputs": [
        {
          "name": "name",
          "type": "string"
        },
        {
          "name": "description",
          "type": "string"
        }
      ],
      "name": "MEWcreateNewStore",
      "outputs": [],
      "payable": false,
      "stateMutability": "nonpayable",
      "type": "function"
    },
    {
      "constant": true,
      "inputs": [],
      "name": "MEWfetchUserType",
      "outputs": [
        {
          "name": "",
          "type": "string"
        }
      ],
      "payable": false,
      "stateMutability": "view",
      "type": "function"
    },
    {
      "constant": false,
      "inputs": [],
      "name": "MEWaddStoreOwnerRequest",
      "outputs": [],
      "payable": false,
      "stateMutability": "nonpayable",
      "type": "function"
    },
    {
      "constant": false,
      "inputs": [
        {
          "name": "index",
          "type": "uint256"
        },
        {
          "name": "storeOwner",
          "type": "address"
        }
      ],
      "name": "MEWaddStoreOwner",
      "outputs": [],
      "payable": false,
      "stateMutability": "nonpayable",
      "type": "function"
    },
    {
      "constant": true,
      "inputs": [],
      "name": "MEWfetchStoreOwnerRequests",
      "outputs": [
        {
          "name": "",
          "type": "address[]"
        }
      ],
      "payable": false,
      "stateMutability": "view",
      "type": "function"
    },
    {
      "constant": false,
      "inputs": [
        {
          "name": "newAdmin",
          "type": "address"
        }
      ],
      "name": "MEWaddAdmin",
      "outputs": [],
      "payable": false,
      "stateMutability": "nonpayable",
      "type": "function"
    },
    {
      "constant": false,
      "inputs": [],
      "name": "MEWwithdraw",
      "outputs": [],
      "payable": true,
      "stateMutability": "payable",
      "type": "function"
    }
  ],
  "bytecode": "0x608060405234801561001057600080fd5b5060018060003373ffffffffffffffffffffffffffffffffffffffff1673ffffffffffffffffffffffffffffffffffffffff16815260200190815260200160002060006101000a81548160ff0219169083151502179055506127f3806100776000396000f3fe6080604052600436106100ba576000357c0100000000000000000000000000000000000000000000000000000000900463ffffffff1680630fd73d5a146100bc57806315ad608b146101575780631649daee146102b657806333c93df3146102cd5780633e586485146103365780634085f668146103a25780635c08e2c7146103ac5780636b6c94e51461043c578063ba9eaf99146104a5578063d0d3eae814610520578063d37702ea1461057b578063ffee8e37146105cc575b005b3480156100c857600080fd5b50610115600480360360408110156100df57600080fd5b81019080803573ffffffffffffffffffffffffffffffffffffffff16906020019092919080359060200190929190505050610638565b604051808273ffffffffffffffffffffffffffffffffffffffff1673ffffffffffffffffffffffffffffffffffffffff16815260200191505060405180910390f35b34801561016357600080fd5b506102b46004803603604081101561017a57600080fd5b810190808035906020019064010000000081111561019757600080fd5b8201836020820111156101a957600080fd5b803590602001918460018302840111640100000000831117156101cb57600080fd5b91908080601f016020809104026020016040519081016040528093929190818152602001838380828437600081840152601f19601f8201169050808301925050505050505091929192908035906020019064010000000081111561022e57600080fd5b82018360208201111561024057600080fd5b8035906020019184600183028401116401000000008311171561026257600080fd5b91908080601f016020809104026020016040519081016040528093929190818152602001838380828437600081840152601f19601f820116905080830192505050505050509192919290505050610685565b005b3480156102c257600080fd5b506102cb61095c565b005b3480156102d957600080fd5b5061031c600480360360208110156102f057600080fd5b81019080803573ffffffffffffffffffffffffffffffffffffffff169060200190929190505050610a27565b604051808215151515815260200191505060405180910390f35b34801561034257600080fd5b5061034b610a47565b6040518080602001828103825283818151815260200191508051906020019060200280838360005b8381101561038e578082015181840152602081019050610373565b505050509050019250505060405180910390f35b6103aa610b12565b005b3480156103b857600080fd5b506103c1610bd1565b6040518080602001828103825283818151815260200191508051906020019080838360005b838110156104015780820151818401526020810190506103e6565b50505050905090810190601f16801561042e5780820380516001836020036101000a031916815260200191505b509250505060405180910390f35b34801561044857600080fd5b5061048b6004803603602081101561045f57600080fd5b81019080803573ffffffffffffffffffffffffffffffffffffffff169060200190929190505050610d3a565b604051808215151515815260200191505060405180910390f35b3480156104b157600080fd5b506104de600480360360208110156104c857600080fd5b8101908080359060200190929190505050610d5a565b604051808273ffffffffffffffffffffffffffffffffffffffff1673ffffffffffffffffffffffffffffffffffffffff16815260200191505060405180910390f35b34801561052c57600080fd5b506105796004803603604081101561054357600080fd5b8101908080359060200190929190803573ffffffffffffffffffffffffffffffffffffffff169060200190929190505050610d98565b005b34801561058757600080fd5b506105ca6004803603602081101561059e57600080fd5b81019080803573ffffffffffffffffffffffffffffffffffffffff169060200190929190505050610f3b565b005b3480156105d857600080fd5b506105e1610ff4565b6040518080602001828103825283818151815260200191508051906020019060200280838360005b83811015610624578082015181840152602081019050610609565b505050509050019250505060405180910390f35b60036020528160005260406000208181548110151561065357fe5b906000526020600020016000915091509054906101000a900473ffffffffffffffffffffffffffffffffffffffff1681565b600115156000803373ffffffffffffffffffffffffffffffffffffffff1673ffffffffffffffffffffffffffffffffffffffff16815260200190815260200160002060009054906101000a900460ff1615151415156106e357600080fd5b60003383836106f0611082565b808473ffffffffffffffffffffffffffffffffffffffff1673ffffffffffffffffffffffffffffffffffffffff1681526020018060200180602001838103835285818151815260200191508051906020019080838360005b83811015610763578082015181840152602081019050610748565b50505050905090810190601f1680156107905780820380516001836020036101000a031916815260200191505b50838103825284818151815260200191508051906020019080838360005b838110156107c95780820151818401526020810190506107ae565b50505050905090810190601f1680156107f65780820380516001836020036101000a031916815260200191505b5095505050505050604051809103906000f08015801561081a573d6000803e3d6000fd5b509050600360003373ffffffffffffffffffffffffffffffffffffffff1673ffffffffffffffffffffffffffffffffffffffff1681526020019081526020016000208190806001815401808255809150509060018203906000526020600020016000909192909190916101000a81548173ffffffffffffffffffffffffffffffffffffffff021916908373ffffffffffffffffffffffffffffffffffffffff160217905550507f5bfeeb512f7c473e55e3d74a1c671d5e3d7155aa005b8c989762122778d0ce103382604051808373ffffffffffffffffffffffffffffffffffffffff1673ffffffffffffffffffffffffffffffffffffffff1681526020018273ffffffffffffffffffffffffffffffffffffffff1673ffffffffffffffffffffffffffffffffffffffff1681526020019250505060405180910390a1505050565b60023390806001815401808255809150509060018203906000526020600020016000909192909190916101000a81548173ffffffffffffffffffffffffffffffffffffffff021916908373ffffffffffffffffffffffffffffffffffffffff160217905550507f70b4cf3cd61dafc549a75d76b91e8bd9719a9ca89408eeaaa54002f29a8a54d833604051808273ffffffffffffffffffffffffffffffffffffffff1673ffffffffffffffffffffffffffffffffffffffff16815260200191505060405180910390a1565b60006020528060005260406000206000915054906101000a900460ff1681565b6060600360003373ffffffffffffffffffffffffffffffffffffffff1673ffffffffffffffffffffffffffffffffffffffff168152602001908152602001600020805480602002602001604051908101604052809291908181526020018280548015610b0857602002820191906000526020600020905b8160009054906101000a900473ffffffffffffffffffffffffffffffffffffffff1673ffffffffffffffffffffffffffffffffffffffff1681526020019060010190808311610abe575b5050505050905090565b60011515600160003373ffffffffffffffffffffffffffffffffffffffff1673ffffffffffffffffffffffffffffffffffffffff16815260200190815260200160002060009054906101000a900460ff161515141515610b7157600080fd5b3373ffffffffffffffffffffffffffffffffffffffff166108fc3073ffffffffffffffffffffffffffffffffffffffff16319081150290604051600060405180830381858888f19350505050158015610bce573d6000803e3d6000fd5b50565b606060011515600160003373ffffffffffffffffffffffffffffffffffffffff1673ffffffffffffffffffffffffffffffffffffffff16815260200190815260200160002060009054906101000a900460ff1615151415610c69576040805190810160405280600981526020017f4d45572061646d696e00000000000000000000000000000000000000000000008152509050610d37565b600115156000803373ffffffffffffffffffffffffffffffffffffffff1673ffffffffffffffffffffffffffffffffffffffff16815260200190815260200160002060009054906101000a900460ff1615151415610cfe576040805190810160405280600e81526020017f4d45572073746f72654f776e65720000000000000000000000000000000000008152509050610d37565b6040805190810160405280600b81526020017f4d45572061646f7074657200000000000000000000000000000000000000000081525090505b90565b60016020528060005260406000206000915054906101000a900460ff1681565b600281815481101515610d6957fe5b906000526020600020016000915054906101000a900473ffffffffffffffffffffffffffffffffffffffff1681565b60011515600160003373ffffffffffffffffffffffffffffffffffffffff1673ffffffffffffffffffffffffffffffffffffffff16815260200190815260200160002060009054906101000a900460ff161515141515610df757600080fd5b81600280549050111515610e0a57600080fd5b8073ffffffffffffffffffffffffffffffffffffffff16600283815481101515610e3057fe5b9060005260206000200160009054906101000a900473ffffffffffffffffffffffffffffffffffffffff1673ffffffffffffffffffffffffffffffffffffffff16141515610e7d57600080fd5b60016000808373ffffffffffffffffffffffffffffffffffffffff1673ffffffffffffffffffffffffffffffffffffffff16815260200190815260200160002060006101000a81548160ff0219169083151502179055507f137d9aadbe20560fab8ebbe6d02e91752e26f3d4789296c0bc0f874d2b35701181604051808273ffffffffffffffffffffffffffffffffffffffff1673ffffffffffffffffffffffffffffffffffffffff16815260200191505060405180910390a15050565b60011515600160003373ffffffffffffffffffffffffffffffffffffffff1673ffffffffffffffffffffffffffffffffffffffff16815260200190815260200160002060009054906101000a900460ff161515141515610f9a57600080fd5b60018060008373ffffffffffffffffffffffffffffffffffffffff1673ffffffffffffffffffffffffffffffffffffffff16815260200190815260200160002060006101000a81548160ff02191690831515021790555050565b6060600280548060200260200160405190810160405280929190818152602001828054801561107857602002820191906000526020600020905b8160009054906101000a900473ffffffffffffffffffffffffffffffffffffffff1673ffffffffffffffffffffffffffffffffffffffff168152602001906001019080831161102e575b5050505050905090565b60405161173480620010948339019056fe60806040526000600560006101000a81548160ff0219169083151502179055503480156200002c57600080fd5b506040516200173438038062001734833981018060405260608110156200005257600080fd5b810190808051906020019092919080516401000000008111156200007557600080fd5b828101905060208101848111156200008c57600080fd5b8151856001820283011164010000000082111715620000aa57600080fd5b50509291906020018051640100000000811115620000c757600080fd5b82810190506020810184811115620000de57600080fd5b8151856001820283011164010000000082111715620000fc57600080fd5b50509291905050508160208151111515156200011757600080fd5b8160208151111515156200012a57600080fd5b836000908051906020019062000142929190620001b0565b5082600190805190602001906200015b929190620001b0565b5084600260006101000a81548173ffffffffffffffffffffffffffffffffffffffff021916908373ffffffffffffffffffffffffffffffffffffffff160217905550600060048190555050505050506200025f565b828054600181600116156101000203166002900490600052602060002090601f016020900481019282601f10620001f357805160ff191683800117855562000224565b8280016001018555821562000224579182015b828111156200022357825182559160200191906001019062000206565b5b50905062000233919062000237565b5090565b6200025c91905b80821115620002585760008160009055506001016200023e565b5090565b90565b6114c5806200026f6000396000f3fe6080604052600436106100a4576000357c0100000000000000000000000000000000000000000000000000000000900463ffffffff16806319602e57146100a6578063381902d81461020f5780633a9ef5cc146102545780633ce91b161461026b5780634085f668146102a3578063655167e8146102ad5780638437ebdd146102dc578063a73443e614610411578063e09030b3146104a1578063f964ef9f14610531575b005b3480156100b257600080fd5b5061020d600480360360608110156100c957600080fd5b81019080803590602001906401000000008111156100e657600080fd5b8201836020820111156100f857600080fd5b8035906020019184600183028401116401000000008311171561011a57600080fd5b91908080601f016020809104026020016040519081016040528093929190818152602001838380828437600081840152601f19601f8201169050808301925050505050505091929192908035906020019064010000000081111561017d57600080fd5b82018360208201111561018f57600080fd5b803590602001918460018302840111640100000000831117156101b157600080fd5b91908080601f016020809104026020016040519081016040528093929190818152602001838380828437600081840152601f19601f8201169050808301925050505050505091929192908035906020019092919050505061055c565b005b34801561021b57600080fd5b506102526004803603604081101561023257600080fd5b81019080803590602001909291908035906020019092919050505061087d565b005b34801561026057600080fd5b50610269610a74565b005b6102a16004803603604081101561028157600080fd5b810190808035906020019092919080359060200190929190505050610bd5565b005b6102ab610f1b565b005b3480156102b957600080fd5b506102c2611088565b604051808215151515815260200191505060405180910390f35b3480156102e857600080fd5b50610315600480360360208110156102ff57600080fd5b810190808035906020019092919050505061109b565b604051808681526020018581526020018481526020018060200180602001838103835285818151815260200191508051906020019080838360005b8381101561036b578082015181840152602081019050610350565b50505050905090810190601f1680156103985780820380516001836020036101000a031916815260200191505b50838103825284818151815260200191508051906020019080838360005b838110156103d15780820151818401526020810190506103b6565b50505050905090810190601f1680156103fe5780820380516001836020036101000a031916815260200191505b5097505050505050505060405180910390f35b34801561041d57600080fd5b50610426611201565b6040518080602001828103825283818151815260200191508051906020019080838360005b8381101561046657808201518184015260208101905061044b565b50505050905090810190601f1680156104935780820380516001836020036101000a031916815260200191505b509250505060405180910390f35b3480156104ad57600080fd5b506104b661129f565b6040518080602001828103825283818151815260200191508051906020019080838360005b838110156104f65780820151818401526020810190506104db565b50505050905090810190601f1680156105235780820380516001836020036101000a031916815260200191505b509250505060405180910390f35b34801561053d57600080fd5b5061054661133d565b6040518082815260200191505060405180910390f35b600260009054906101000a900473ffffffffffffffffffffffffffffffffffffffff1673ffffffffffffffffffffffffffffffffffffffff163373ffffffffffffffffffffffffffffffffffffffff16141515610647576040517f08c379a00000000000000000000000000000000000000000000000000000000081526004018080602001828103825260278152602001807f416c6c6f77656420616374696f6e206f6e6c79206279204d45572073746f726581526020017f206f776e65722e0000000000000000000000000000000000000000000000000081525060400191505060405180910390fd5b82602081511115151561065957600080fd5b82602081511115151561066b57600080fd5b6106736113c4565b60a060405190810160405280610695600160045461134390919063ffffffff16565b81526020016000815260200185815260200187815260200186815250905080600360006106ce600160045461134390919063ffffffff16565b815260200190815260200160002060008201518160000155602082015181600101556040820151816002015560608201518160030190805190602001906107169291906113f4565b5060808201518160040190805190602001906107339291906113f4565b5090505061074d600160045461134390919063ffffffff16565b60048190555080600001517f3f9ab89e962e6b1cc3733174cd8f65781610435cf7e772bed7913f0e639beea6826060015183608001518460400151604051808060200180602001848152602001838103835286818151815260200191508051906020019080838360005b838110156107d25780820151818401526020810190506107b7565b50505050905090810190601f1680156107ff5780820380516001836020036101000a031916815260200191505b50838103825285818151815260200191508051906020019080838360005b8381101561083857808201518184015260208101905061081d565b50505050905090810190601f1680156108655780820380516001836020036101000a031916815260200191505b509550505050505060405180910390a2505050505050565b8160006108958260045461136490919063ffffffff16565b10151515610931576040517f08c379a00000000000000000000000000000000000000000000000000000000081526004018080602001828103825260258152602001807f4d455720736b7520646f6573206e6f7420657869737420696e2074686973207381526020017f746f72652e00000000000000000000000000000000000000000000000000000081525060400191505060405180910390fd5b600260009054906101000a900473ffffffffffffffffffffffffffffffffffffffff1673ffffffffffffffffffffffffffffffffffffffff163373ffffffffffffffffffffffffffffffffffffffff16141515610a1c576040517f08c379a00000000000000000000000000000000000000000000000000000000081526004018080602001828103825260278152602001807f416c6c6f77656420616374696f6e206f6e6c79206279204d45572073746f726581526020017f206f776e65722e0000000000000000000000000000000000000000000000000081525060400191505060405180910390fd5b816003600085815260200190815260200160002060010181905550827fd6d995d0938b43788ad69e34e7ab3ac1b886e19641e96cf7549c5fb096224255836040518082815260200191505060405180910390a2505050565b600260009054906101000a900473ffffffffffffffffffffffffffffffffffffffff1673ffffffffffffffffffffffffffffffffffffffff163373ffffffffffffffffffffffffffffffffffffffff16141515610b5f576040517f08c379a00000000000000000000000000000000000000000000000000000000081526004018080602001828103825260278152602001807f416c6c6f77656420616374696f6e206f6e6c79206279204d45572073746f726581526020017f206f776e65722e0000000000000000000000000000000000000000000000000081525060400191505060405180910390fd5b600560009054906101000a900460ff1615600560006101000a81548160ff0219169083151502179055507f48da4f8222e164e7ec5f61ba39152890e024a7ed898abb8a3762ab205fa3b04a600560009054906101000a900460ff16604051808215151515815260200191505060405180910390a1565b816000610bed8260045461136490919063ffffffff16565b10151515610c89576040517f08c379a00000000000000000000000000000000000000000000000000000000081526004018080602001828103825260258152602001807f4d455720736b7520646f6573206e6f7420657869737420696e2074686973207381526020017f746f72652e00000000000000000000000000000000000000000000000000000081525060400191505060405180910390fd5b82826000610cb682600360008681526020019081526020016000206001015461136490919063ffffffff16565b10151515610d2c576040517f08c379a000000000000000000000000000000000000000000000000000000000815260040180806020018281038252601b8152602001807f496e73756666696369656e74204d455720696e76656e746f72792e000000000081525060200191505060405180910390fd5b8484610d5781600360008581526020019081526020016000206002015461138690919063ffffffff16565b3410151515610dce576040517f08c379a00000000000000000000000000000000000000000000000000000000081526004018080602001828103825260138152602001807f496e73756666696369656e742045746865722e0000000000000000000000000081525060200191505060405180910390fd5b600560009054906101000a900460ff161515610e6057610e0d86600360008a81526020019081526020016000206001015461136490919063ffffffff16565b6003600089815260200190815260200160002060010181905550867f8973330d8434c114c35e23505e0503b521cd74ba673360f19b7dc94dd8bbc69f876040518082815260200191505060405180910390a25b610e8981600360008581526020019081526020016000206002015461138690919063ffffffff16565b341115610f12573373ffffffffffffffffffffffffffffffffffffffff166108fc610ee5610ed684600360008881526020019081526020016000206002015461138690919063ffffffff16565b3461136490919063ffffffff16565b9081150290604051600060405180830381858888f19350505050158015610f10573d6000803e3d6000fd5b505b50505050505050565b600260009054906101000a900473ffffffffffffffffffffffffffffffffffffffff1673ffffffffffffffffffffffffffffffffffffffff163373ffffffffffffffffffffffffffffffffffffffff16141515611006576040517f08c379a00000000000000000000000000000000000000000000000000000000081526004018080602001828103825260278152602001807f416c6c6f77656420616374696f6e206f6e6c79206279204d45572073746f726581526020017f206f776e65722e0000000000000000000000000000000000000000000000000081525060400191505060405180910390fd5b600260009054906101000a900473ffffffffffffffffffffffffffffffffffffffff1673ffffffffffffffffffffffffffffffffffffffff166108fc3073ffffffffffffffffffffffffffffffffffffffff16319081150290604051600060405180830381858888f19350505050158015611085573d6000803e3d6000fd5b50565b600560009054906101000a900460ff1681565b6003602052806000526040600020600091509050806000015490806001015490806002015490806003018054600181600116156101000203166002900480601f0160208091040260200160405190810160405280929190818152602001828054600181600116156101000203166002900480156111595780601f1061112e57610100808354040283529160200191611159565b820191906000526020600020905b81548152906001019060200180831161113c57829003601f168201915b505050505090806004018054600181600116156101000203166002900480601f0160208091040260200160405190810160405280929190818152602001828054600181600116156101000203166002900480156111f75780601f106111cc576101008083540402835291602001916111f7565b820191906000526020600020905b8154815290600101906020018083116111da57829003601f168201915b5050505050905085565b60018054600181600116156101000203166002900480601f0160208091040260200160405190810160405280929190818152602001828054600181600116156101000203166002900480156112975780601f1061126c57610100808354040283529160200191611297565b820191906000526020600020905b81548152906001019060200180831161127a57829003601f168201915b505050505081565b60008054600181600116156101000203166002900480601f0160208091040260200160405190810160405280929190818152602001828054600181600116156101000203166002900480156113355780601f1061130a57610100808354040283529160200191611335565b820191906000526020600020905b81548152906001019060200180831161131857829003601f168201915b505050505081565b60045481565b600080828401905083811015151561135a57600080fd5b8091505092915050565b600082821115151561137557600080fd5b600082840390508091505092915050565b60008083141561139957600090506113be565b600082840290508284828115156113ac57fe5b041415156113b957600080fd5b809150505b92915050565b60a06040519081016040528060008152602001600081526020016000815260200160608152602001606081525090565b828054600181600116156101000203166002900490600052602060002090601f016020900481019282601f1061143557805160ff1916838001178555611463565b82800160010185558215611463579182015b82811115611462578251825591602001919060010190611447565b5b5090506114709190611474565b5090565b61149691905b8082111561149257600081600090555060010161147a565b5090565b9056fea165627a7a72305820428655b0099952420fda4588860ffdd5179472b3b0d218a4d78b8fee2f2ce7cf0029a165627a7a72305820839e7adb9c95bf14c5c389e4f22b17ae39a881471342d38efdf2fc6fab358f6f0029",
  "source": "/*\n    Consensys Final proj on Solidity version 0.5\n    Marketplace contract to trade, ie buy and sell, digital representations of Endangered Wildlife\n    MEW - Marketplace of Endangered Wildlife, inspired by my love of cats\n    To create communities of interest, indirectly funding their conservation\n    Baltazar 2019\n*/\n\npragma solidity ^0.5.0;\n\nimport './Store.sol'; \n\n/// @title A simulator Marketplace to trade digital representations of Endangered Wildlife (MEW)\n/// @author GBaltazar\n/// @notice Very basic simulation\n/// @dev Gas costs warning: functions may not execute if gas requirements are too high \ncontract MEWMarketplace {\n  mapping (address => bool) public MEWstoreOwners;\n  mapping (address => bool) public MEWadmins;\n  address[] public MEWstoreOwnerRequests;\n  mapping (address => address[]) public MEWstoreAddressesByOwner;\n\n  event MEWStoreOwnerRequestSent(address MEWstoreOwnerRequestAddress);\n  event MEWStoreOwnerAdded(address MEWstoreOwnerAddress);\n  event MEWStoreOwnerRequestsUpdated(address[]);\n  event MEWNewStoreCreated(address owner, address store);\n\n\n  modifier isStoreOwner() {\n    require(MEWstoreOwners[msg.sender] == true);\n    _;\n  }\n\n  modifier isAdmin() {\n    require(MEWadmins[msg.sender] == true);\n    _;  \n  }\n\n  /// @dev set admin as person who instantiated the MEW marketplace contract\n  constructor() public {\n    MEWadmins[msg.sender] = true;\n  }\n\n  /// @dev fetch list of store contract addresses that msg.sender owns.\n  /// @return list of store contract addresses.\n  function MEWfetchStoreAddressesByOwner() public view returns (address[] memory) {\n    return MEWstoreAddressesByOwner[msg.sender];\n  }\n\n  /// @dev create new store contract with msg.sender as owner.\n  /// @param name is the name of the store.\n  /// @param description is the description of the store.\n  function MEWcreateNewStore(string memory name, string memory description) public isStoreOwner {\n    MEWStore newStore = new MEWStore(msg.sender, name, description);\n    MEWstoreAddressesByOwner[msg.sender].push(address(newStore));\n    emit MEWNewStoreCreated(msg.sender, address(newStore));\n  } \n\n  /// @dev Fetch type of user msg.sender.\n  /// @return Type of user msg.sender in a string.\n  function MEWfetchUserType() public view returns (string memory) {\n    if (MEWadmins[msg.sender] == true) {\n      return 'MEW admin';\n    }\n    else if (MEWstoreOwners[msg.sender] == true) {\n      return 'MEW storeOwner';\n    }\n    else {\n      return 'MEW adopter';\n    }\n  }\n\n  /// @dev Adds a request for msg.sender to become a store owner \n  function MEWaddStoreOwnerRequest() public {\n    MEWstoreOwnerRequests.push(msg.sender);\n    emit MEWStoreOwnerRequestSent(msg.sender);\n  }\n\n  /// @dev Adds a new store owner from the list of requests.\n  /// @param index among list of requests of the approved store owner.\n  /// @param storeOwner is the address of the store owner that admin approves.\n  function MEWaddStoreOwner(uint index, address storeOwner) public isAdmin {\n    require(MEWstoreOwnerRequests.length > index);\n    require(MEWstoreOwnerRequests[index] == storeOwner);\n    MEWstoreOwners[storeOwner] = true;\n    emit MEWStoreOwnerAdded(storeOwner);\n  }\n\n  /// @dev Fetch all the store owner requests.\n  /// @return List of all the addresses of open requests.\n  function MEWfetchStoreOwnerRequests() public view returns (address[] memory) {\n    return MEWstoreOwnerRequests;\n  }\n\n  /// @dev Adds a new admin to the marketplace.\n  /// @param newAdmin Address of the new admin to add.\n  function MEWaddAdmin(address newAdmin) public isAdmin {\n    MEWadmins[newAdmin] = true;\n  }\n\n  /// @dev Admins can withdraw any funds sent to the contract.\n  function MEWwithdraw() public payable isAdmin {\n    msg.sender.transfer(address(this).balance);\n  }\n\n  /// @dev Default payable function.\n  function () external payable {}\n}\n",
  "sourcePath": "/home/ubuntu/Documents/dapp_mewmarketplace-ginobaltazar7/contracts/Marketplace.sol",
  "compiler": {
    "name": "solc",
    "version": "0.5.0+commit.1d4f565a.Emscripten.clang"
  },
  "schemaVersion": "3.0.1",
  "updatedAt": "2019-01-28T04:21:09.482Z",
  "devdoc": {
    "author": "GBaltazar",
    "details": "Gas costs warning: functions may not execute if gas requirements are too high ",
    "methods": {
      "MEWaddAdmin(address)": {
        "details": "Adds a new admin to the marketplace.",
        "params": {
          "newAdmin": "Address of the new admin to add."
        }
      },
      "MEWaddStoreOwner(uint256,address)": {
        "details": "Adds a new store owner from the list of requests.",
        "params": {
          "index": "among list of requests of the approved store owner.",
          "storeOwner": "is the address of the store owner that admin approves."
        }
      },
      "MEWaddStoreOwnerRequest()": {
        "details": "Adds a request for msg.sender to become a store owner "
      },
      "MEWcreateNewStore(string,string)": {
        "details": "create new store contract with msg.sender as owner.",
        "params": {
          "description": "is the description of the store.",
          "name": "is the name of the store."
        }
      },
      "MEWfetchStoreAddressesByOwner()": {
        "details": "fetch list of store contract addresses that msg.sender owns.",
        "return": "list of store contract addresses."
      },
      "MEWfetchStoreOwnerRequests()": {
        "details": "Fetch all the store owner requests.",
        "return": "List of all the addresses of open requests."
      },
      "MEWfetchUserType()": {
        "details": "Fetch type of user msg.sender.",
        "return": "Type of user msg.sender in a string."
      },
      "MEWwithdraw()": {
        "details": "Admins can withdraw any funds sent to the contract."
      },
      "constructor": {
        "details": "set admin as person who instantiated the MEW marketplace contract"
      }
    },
    "title": "A simulator Marketplace to trade digital representations of Endangered Wildlife (MEW)"
  },
  "userdoc": {
    "methods": {},
    "notice": "Very basic simulation"
  }
}