{
  "contractName": "MEWStore",
  "abi": [
    {
      "constant": true,
      "inputs": [],
      "name": "MEWstopped",
      "outputs": [
        {
          "name": "",
          "type": "bool"
        }
      ],
      "payable": false,
      "stateMutability": "view",
      "type": "function"
    },
    {
      "constant": true,
      "inputs": [
        {
          "name": "",
          "type": "uint256"
        }
      ],
      "name": "MEWproductsBySku",
      "outputs": [
        {
          "name": "sku",
          "type": "uint256"
        },
        {
          "name": "inventoryCount",
          "type": "uint256"
        },
        {
          "name": "price",
          "type": "uint256"
        },
        {
          "name": "name",
          "type": "string"
        },
        {
          "name": "description",
          "type": "string"
        }
      ],
      "payable": false,
      "stateMutability": "view",
      "type": "function"
    },
    {
      "constant": true,
      "inputs": [],
      "name": "MEWdescription",
      "outputs": [
        {
          "name": "",
          "type": "string"
        }
      ],
      "payable": false,
      "stateMutability": "view",
      "type": "function"
    },
    {
      "constant": true,
      "inputs": [],
      "name": "MEWname",
      "outputs": [
        {
          "name": "",
          "type": "string"
        }
      ],
      "payable": false,
      "stateMutability": "view",
      "type": "function"
    },
    {
      "constant": true,
      "inputs": [],
      "name": "MEWnewestProductSku",
      "outputs": [
        {
          "name": "",
          "type": "uint256"
        }
      ],
      "payable": false,
      "stateMutability": "view",
      "type": "function"
    },
    {
      "inputs": [
        {
          "name": "sender",
          "type": "address"
        },
        {
          "name": "storeName",
          "type": "string"
        },
        {
          "name": "storeDescription",
          "type": "string"
        }
      ],
      "payable": false,
      "stateMutability": "nonpayable",
      "type": "constructor"
    },
    {
      "payable": true,
      "stateMutability": "payable",
      "type": "fallback"
    },
    {
      "anonymous": false,
      "inputs": [
        {
          "indexed": false,
          "name": "name",
          "type": "string"
        },
        {
          "indexed": false,
          "name": "description",
          "type": "string"
        },
        {
          "indexed": true,
          "name": "sku",
          "type": "uint256"
        },
        {
          "indexed": false,
          "name": "price",
          "type": "uint256"
        }
      ],
      "name": "MEWNewProductAdded",
      "type": "event"
    },
    {
      "anonymous": false,
      "inputs": [
        {
          "indexed": true,
          "name": "sku",
          "type": "uint256"
        },
        {
          "indexed": false,
          "name": "newInventoryCount",
          "type": "uint256"
        }
      ],
      "name": "MEWInventoryCountUpdated",
      "type": "event"
    },
    {
      "anonymous": false,
      "inputs": [
        {
          "indexed": true,
          "name": "sku",
          "type": "uint256"
        },
        {
          "indexed": false,
          "name": "quantity",
          "type": "uint256"
        }
      ],
      "name": "MEWPurchaseMade",
      "type": "event"
    },
    {
      "anonymous": false,
      "inputs": [
        {
          "indexed": false,
          "name": "isStopped",
          "type": "bool"
        }
      ],
      "name": "MEWContractStateToggled",
      "type": "event"
    },
    {
      "constant": false,
      "inputs": [],
      "name": "MEWtoggleContractActive",
      "outputs": [],
      "payable": false,
      "stateMutability": "nonpayable",
      "type": "function"
    },
    {
      "constant": false,
      "inputs": [],
      "name": "MEWwithdraw",
      "outputs": [],
      "payable": true,
      "stateMutability": "payable",
      "type": "function"
    },
    {
      "constant": false,
      "inputs": [
        {
          "name": "newProductName",
          "type": "string"
        },
        {
          "name": "newProductDescription",
          "type": "string"
        },
        {
          "name": "newProductPrice",
          "type": "uint256"
        }
      ],
      "name": "MEWaddNewProduct",
      "outputs": [],
      "payable": false,
      "stateMutability": "nonpayable",
      "type": "function"
    },
    {
      "constant": false,
      "inputs": [
        {
          "name": "sku",
          "type": "uint256"
        },
        {
          "name": "newInventoryCount",
          "type": "uint256"
        }
      ],
      "name": "MEWupdateInventoryCount",
      "outputs": [],
      "payable": false,
      "stateMutability": "nonpayable",
      "type": "function"
    },
    {
      "constant": false,
      "inputs": [
        {
          "name": "sku",
          "type": "uint256"
        },
        {
          "name": "quantity",
          "type": "uint256"
        }
      ],
      "name": "MEWpurchaseProduct",
      "outputs": [],
      "payable": true,
      "stateMutability": "payable",
      "type": "function"
    }
  ],
  "bytecode": "0x60806040526000600560006101000a81548160ff0219169083151502179055503480156200002c57600080fd5b506040516200173438038062001734833981018060405260608110156200005257600080fd5b810190808051906020019092919080516401000000008111156200007557600080fd5b828101905060208101848111156200008c57600080fd5b8151856001820283011164010000000082111715620000aa57600080fd5b50509291906020018051640100000000811115620000c757600080fd5b82810190506020810184811115620000de57600080fd5b8151856001820283011164010000000082111715620000fc57600080fd5b50509291905050508160208151111515156200011757600080fd5b8160208151111515156200012a57600080fd5b836000908051906020019062000142929190620001b0565b5082600190805190602001906200015b929190620001b0565b5084600260006101000a81548173ffffffffffffffffffffffffffffffffffffffff021916908373ffffffffffffffffffffffffffffffffffffffff160217905550600060048190555050505050506200025f565b828054600181600116156101000203166002900490600052602060002090601f016020900481019282601f10620001f357805160ff191683800117855562000224565b8280016001018555821562000224579182015b828111156200022357825182559160200191906001019062000206565b5b50905062000233919062000237565b5090565b6200025c91905b80821115620002585760008160009055506001016200023e565b5090565b90565b6114c5806200026f6000396000f3fe6080604052600436106100a4576000357c0100000000000000000000000000000000000000000000000000000000900463ffffffff16806319602e57146100a6578063381902d81461020f5780633a9ef5cc146102545780633ce91b161461026b5780634085f668146102a3578063655167e8146102ad5780638437ebdd146102dc578063a73443e614610411578063e09030b3146104a1578063f964ef9f14610531575b005b3480156100b257600080fd5b5061020d600480360360608110156100c957600080fd5b81019080803590602001906401000000008111156100e657600080fd5b8201836020820111156100f857600080fd5b8035906020019184600183028401116401000000008311171561011a57600080fd5b91908080601f016020809104026020016040519081016040528093929190818152602001838380828437600081840152601f19601f8201169050808301925050505050505091929192908035906020019064010000000081111561017d57600080fd5b82018360208201111561018f57600080fd5b803590602001918460018302840111640100000000831117156101b157600080fd5b91908080601f016020809104026020016040519081016040528093929190818152602001838380828437600081840152601f19601f8201169050808301925050505050505091929192908035906020019092919050505061055c565b005b34801561021b57600080fd5b506102526004803603604081101561023257600080fd5b81019080803590602001909291908035906020019092919050505061087d565b005b34801561026057600080fd5b50610269610a74565b005b6102a16004803603604081101561028157600080fd5b810190808035906020019092919080359060200190929190505050610bd5565b005b6102ab610f1b565b005b3480156102b957600080fd5b506102c2611088565b604051808215151515815260200191505060405180910390f35b3480156102e857600080fd5b50610315600480360360208110156102ff57600080fd5b810190808035906020019092919050505061109b565b604051808681526020018581526020018481526020018060200180602001838103835285818151815260200191508051906020019080838360005b8381101561036b578082015181840152602081019050610350565b50505050905090810190601f1680156103985780820380516001836020036101000a031916815260200191505b50838103825284818151815260200191508051906020019080838360005b838110156103d15780820151818401526020810190506103b6565b50505050905090810190601f1680156103fe5780820380516001836020036101000a031916815260200191505b5097505050505050505060405180910390f35b34801561041d57600080fd5b50610426611201565b6040518080602001828103825283818151815260200191508051906020019080838360005b8381101561046657808201518184015260208101905061044b565b50505050905090810190601f1680156104935780820380516001836020036101000a031916815260200191505b509250505060405180910390f35b3480156104ad57600080fd5b506104b661129f565b6040518080602001828103825283818151815260200191508051906020019080838360005b838110156104f65780820151818401526020810190506104db565b50505050905090810190601f1680156105235780820380516001836020036101000a031916815260200191505b509250505060405180910390f35b34801561053d57600080fd5b5061054661133d565b6040518082815260200191505060405180910390f35b600260009054906101000a900473ffffffffffffffffffffffffffffffffffffffff1673ffffffffffffffffffffffffffffffffffffffff163373ffffffffffffffffffffffffffffffffffffffff16141515610647576040517f08c379a00000000000000000000000000000000000000000000000000000000081526004018080602001828103825260278152602001807f416c6c6f77656420616374696f6e206f6e6c79206279204d45572073746f726581526020017f206f776e65722e0000000000000000000000000000000000000000000000000081525060400191505060405180910390fd5b82602081511115151561065957600080fd5b82602081511115151561066b57600080fd5b6106736113c4565b60a060405190810160405280610695600160045461134390919063ffffffff16565b81526020016000815260200185815260200187815260200186815250905080600360006106ce600160045461134390919063ffffffff16565b815260200190815260200160002060008201518160000155602082015181600101556040820151816002015560608201518160030190805190602001906107169291906113f4565b5060808201518160040190805190602001906107339291906113f4565b5090505061074d600160045461134390919063ffffffff16565b60048190555080600001517f3f9ab89e962e6b1cc3733174cd8f65781610435cf7e772bed7913f0e639beea6826060015183608001518460400151604051808060200180602001848152602001838103835286818151815260200191508051906020019080838360005b838110156107d25780820151818401526020810190506107b7565b50505050905090810190601f1680156107ff5780820380516001836020036101000a031916815260200191505b50838103825285818151815260200191508051906020019080838360005b8381101561083857808201518184015260208101905061081d565b50505050905090810190601f1680156108655780820380516001836020036101000a031916815260200191505b509550505050505060405180910390a2505050505050565b8160006108958260045461136490919063ffffffff16565b10151515610931576040517f08c379a00000000000000000000000000000000000000000000000000000000081526004018080602001828103825260258152602001807f4d455720736b7520646f6573206e6f7420657869737420696e2074686973207381526020017f746f72652e00000000000000000000000000000000000000000000000000000081525060400191505060405180910390fd5b600260009054906101000a900473ffffffffffffffffffffffffffffffffffffffff1673ffffffffffffffffffffffffffffffffffffffff163373ffffffffffffffffffffffffffffffffffffffff16141515610a1c576040517f08c379a00000000000000000000000000000000000000000000000000000000081526004018080602001828103825260278152602001807f416c6c6f77656420616374696f6e206f6e6c79206279204d45572073746f726581526020017f206f776e65722e0000000000000000000000000000000000000000000000000081525060400191505060405180910390fd5b816003600085815260200190815260200160002060010181905550827fd6d995d0938b43788ad69e34e7ab3ac1b886e19641e96cf7549c5fb096224255836040518082815260200191505060405180910390a2505050565b600260009054906101000a900473ffffffffffffffffffffffffffffffffffffffff1673ffffffffffffffffffffffffffffffffffffffff163373ffffffffffffffffffffffffffffffffffffffff16141515610b5f576040517f08c379a00000000000000000000000000000000000000000000000000000000081526004018080602001828103825260278152602001807f416c6c6f77656420616374696f6e206f6e6c79206279204d45572073746f726581526020017f206f776e65722e0000000000000000000000000000000000000000000000000081525060400191505060405180910390fd5b600560009054906101000a900460ff1615600560006101000a81548160ff0219169083151502179055507f48da4f8222e164e7ec5f61ba39152890e024a7ed898abb8a3762ab205fa3b04a600560009054906101000a900460ff16604051808215151515815260200191505060405180910390a1565b816000610bed8260045461136490919063ffffffff16565b10151515610c89576040517f08c379a00000000000000000000000000000000000000000000000000000000081526004018080602001828103825260258152602001807f4d455720736b7520646f6573206e6f7420657869737420696e2074686973207381526020017f746f72652e00000000000000000000000000000000000000000000000000000081525060400191505060405180910390fd5b82826000610cb682600360008681526020019081526020016000206001015461136490919063ffffffff16565b10151515610d2c576040517f08c379a000000000000000000000000000000000000000000000000000000000815260040180806020018281038252601b8152602001807f496e73756666696369656e74204d455720696e76656e746f72792e000000000081525060200191505060405180910390fd5b8484610d5781600360008581526020019081526020016000206002015461138690919063ffffffff16565b3410151515610dce576040517f08c379a00000000000000000000000000000000000000000000000000000000081526004018080602001828103825260138152602001807f496e73756666696369656e742045746865722e0000000000000000000000000081525060200191505060405180910390fd5b600560009054906101000a900460ff161515610e6057610e0d86600360008a81526020019081526020016000206001015461136490919063ffffffff16565b6003600089815260200190815260200160002060010181905550867f8973330d8434c114c35e23505e0503b521cd74ba673360f19b7dc94dd8bbc69f876040518082815260200191505060405180910390a25b610e8981600360008581526020019081526020016000206002015461138690919063ffffffff16565b341115610f12573373ffffffffffffffffffffffffffffffffffffffff166108fc610ee5610ed684600360008881526020019081526020016000206002015461138690919063ffffffff16565b3461136490919063ffffffff16565b9081150290604051600060405180830381858888f19350505050158015610f10573d6000803e3d6000fd5b505b50505050505050565b600260009054906101000a900473ffffffffffffffffffffffffffffffffffffffff1673ffffffffffffffffffffffffffffffffffffffff163373ffffffffffffffffffffffffffffffffffffffff16141515611006576040517f08c379a00000000000000000000000000000000000000000000000000000000081526004018080602001828103825260278152602001807f416c6c6f77656420616374696f6e206f6e6c79206279204d45572073746f726581526020017f206f776e65722e0000000000000000000000000000000000000000000000000081525060400191505060405180910390fd5b600260009054906101000a900473ffffffffffffffffffffffffffffffffffffffff1673ffffffffffffffffffffffffffffffffffffffff166108fc3073ffffffffffffffffffffffffffffffffffffffff16319081150290604051600060405180830381858888f19350505050158015611085573d6000803e3d6000fd5b50565b600560009054906101000a900460ff1681565b6003602052806000526040600020600091509050806000015490806001015490806002015490806003018054600181600116156101000203166002900480601f0160208091040260200160405190810160405280929190818152602001828054600181600116156101000203166002900480156111595780601f1061112e57610100808354040283529160200191611159565b820191906000526020600020905b81548152906001019060200180831161113c57829003601f168201915b505050505090806004018054600181600116156101000203166002900480601f0160208091040260200160405190810160405280929190818152602001828054600181600116156101000203166002900480156111f75780601f106111cc576101008083540402835291602001916111f7565b820191906000526020600020905b8154815290600101906020018083116111da57829003601f168201915b5050505050905085565b60018054600181600116156101000203166002900480601f0160208091040260200160405190810160405280929190818152602001828054600181600116156101000203166002900480156112975780601f1061126c57610100808354040283529160200191611297565b820191906000526020600020905b81548152906001019060200180831161127a57829003601f168201915b505050505081565b60008054600181600116156101000203166002900480601f0160208091040260200160405190810160405280929190818152602001828054600181600116156101000203166002900480156113355780601f1061130a57610100808354040283529160200191611335565b820191906000526020600020905b81548152906001019060200180831161131857829003601f168201915b505050505081565b60045481565b600080828401905083811015151561135a57600080fd5b8091505092915050565b600082821115151561137557600080fd5b600082840390508091505092915050565b60008083141561139957600090506113be565b600082840290508284828115156113ac57fe5b041415156113b957600080fd5b809150505b92915050565b60a06040519081016040528060008152602001600081526020016000815260200160608152602001606081525090565b828054600181600116156101000203166002900490600052602060002090601f016020900481019282601f1061143557805160ff1916838001178555611463565b82800160010185558215611463579182015b82811115611462578251825591602001919060010190611447565b5b5090506114709190611474565b5090565b61149691905b8082111561149257600081600090555060010161147a565b5090565b9056fea165627a7a72305820428655b0099952420fda4588860ffdd5179472b3b0d218a4d78b8fee2f2ce7cf0029",
  "source": "/*\n    Consensys Final proj on Solidity version 0.5\n    Store contract to trade, ie buy and sell, digital representations of Endangered Wildlife\n    MEW - Marketplace of Endangered Wildlife, inspired by my love of cats\n    To create communities of interest, indirectly funding their conservation\n    Baltazar 2019\n*/\n\npragma solidity ^0.5.0;\n\nimport \"openzeppelin-solidity/contracts/math/SafeMath.sol\";\n\n/// @title A simulator Store to trade digital representations of Endangered Wildlife (MEW)\n/// @author GBaltazar\n/// @notice Very basic simulation; using SafeMath for uint256; product as MEWs\n/// @dev Gas costs warning: functions may not execute if gas requirements are too high\ncontract MEWStore {\n  using SafeMath for uint256;\n\n  string public MEWname;\n  string public MEWdescription;\n  address payable MEWowner;\n  mapping (uint256 => MEWProduct) public MEWproductsBySku;\n  uint256 public MEWnewestProductSku;\n  bool public MEWstopped = false;\n\n  struct MEWProduct {\n    uint sku;\n    uint inventoryCount;\n    uint price;\n    string name;\n    string description;\n  }\n\n  event MEWNewProductAdded(string name, string description, uint256 indexed sku, uint256 price);\n  event MEWInventoryCountUpdated(uint256 indexed sku, uint256 newInventoryCount);\n  event MEWPurchaseMade(uint256 indexed sku, uint256 quantity);\n  event MEWContractStateToggled(bool isStopped);\n\n  modifier MEWisOwner() {\n    require(msg.sender == MEWowner, \"Allowed action only by MEW store owner.\");\n    _;\n  }\n\n  modifier MEWstringLengthOkay(string memory str) {\n    require(bytes(str).length <= 32);\n    _;\n  }\n\n  modifier MEWskuExists(uint256 sku) {\n    require(MEWnewestProductSku.sub(sku) >= 0, \"MEW sku does not exist in this store.\");\n    _;\n  }\n\n  modifier MEWenoughInventory(uint256 sku, uint256 quantity) {\n    require(MEWproductsBySku[sku].inventoryCount.sub(quantity) >= 0, \"Insufficient MEW inventory.\");\n    _;\n  }\n\n  modifier MEWenoughEthSent(uint256 sku, uint256 quantity) {\n      require(msg.value >= MEWproductsBySku[sku].price.mul(quantity), \"Insufficient Ether.\");\n      _;\n\n      if (msg.value > MEWproductsBySku[sku].price.mul(quantity)) {\n        msg.sender.transfer(msg.value.sub(MEWproductsBySku[sku].price.mul(quantity)));\n      }\n  }\n\n  modifier MEWstopInEmergency {\n    if (!MEWstopped) {\n      _;\n    }\n  }\n\n  modifier MEWonlyInEmergency {\n    if (MEWstopped) {\n      _;\n    }\n  }\n\n  /// @dev set sender as person who instantiated the MEW store contract\n constructor(address payable sender, string memory storeName, string memory storeDescription) \n    public\n    MEWstringLengthOkay(storeName)\n    MEWstringLengthOkay(storeDescription) {\n    MEWname = storeName;\n    MEWdescription = storeDescription;\n    MEWowner = sender;\n    MEWnewestProductSku = 0;\n  }\n\n  /// @dev MEW Owner can change contract state in case of emergency.\n  function MEWtoggleContractActive() \n    public\n    MEWisOwner {\n      MEWstopped = !MEWstopped;\n      emit MEWContractStateToggled(MEWstopped);\n  }\n\n  /// @dev MEW Owner can withdraw any funds the store has earned by selling products.\n  function MEWwithdraw() public payable MEWisOwner {\n    MEWowner.transfer(address(this).balance);\n  }\n\n  /// @dev Owner can add MEW products to store to sell.\n  /// @param newProductName is name of the new MEW product.\n  /// @param newProductDescription The description of the new MEW product.\n  /// @param newProductPrice The price of the new MEW product.\n  function MEWaddNewProduct(string memory newProductName, string memory newProductDescription, uint256 newProductPrice) \n    public\n    MEWisOwner\n    MEWstringLengthOkay(newProductName)\n    MEWstringLengthOkay(newProductDescription) {\n    MEWProduct memory newProduct = MEWProduct({\n      sku: MEWnewestProductSku.add(1), \n      inventoryCount: 0, \n      price: newProductPrice,\n      name: newProductName, \n      description: newProductDescription\n    });\n\n    MEWproductsBySku[MEWnewestProductSku.add(1)] = newProduct;\n    MEWnewestProductSku = MEWnewestProductSku.add(1);\n    emit MEWNewProductAdded(newProduct.name, newProduct.description, newProduct.sku, newProduct.price);\n  }\n\n  /// @dev Owner can update MEW inventory for a given MEW product.\n  /// @param sku The MEW product's sku.\n  /// @param newInventoryCount Updated MEW product inventory count.\n  function MEWupdateInventoryCount(uint256 sku, uint256 newInventoryCount) \n    public\n    MEWskuExists(sku) \n    MEWisOwner {\n\n    MEWproductsBySku[sku].inventoryCount = newInventoryCount;\n    emit MEWInventoryCountUpdated(sku, newInventoryCount);\n  }\n\n  /// @dev Purchase a MEW product from the store.\n  /// @param sku The MEW product's SKU.\n  /// @param quantity Units of MEW product inventory being purchased.\n  function MEWpurchaseProduct(uint256 sku, uint256 quantity) \n    public \n    payable\n    MEWskuExists(sku)\n    MEWenoughInventory(sku, quantity)\n    MEWenoughEthSent(sku, quantity)\n    MEWstopInEmergency {\n\n    MEWproductsBySku[sku].inventoryCount = MEWproductsBySku[sku].inventoryCount.sub(quantity);\n    emit MEWPurchaseMade(sku, quantity);\n  }\n  /// @dev Default payable function.\n  function () external payable {}\n}\n",
  "sourcePath": "/home/ubuntu/Documents/dapp_mewmarketplace-ginobaltazar7/contracts/Store.sol",
  "compiler": {
    "name": "solc",
    "version": "0.5.0+commit.1d4f565a.Emscripten.clang"
  },
  "schemaVersion": "3.0.1",
  "updatedAt": "2019-01-28T04:21:09.484Z",
  "devdoc": {
    "author": "GBaltazar",
    "details": "Gas costs warning: functions may not execute if gas requirements are too high",
    "methods": {
      "MEWaddNewProduct(string,string,uint256)": {
        "details": "Owner can add MEW products to store to sell.",
        "params": {
          "newProductDescription": "The description of the new MEW product.",
          "newProductName": "is name of the new MEW product.",
          "newProductPrice": "The price of the new MEW product."
        }
      },
      "MEWpurchaseProduct(uint256,uint256)": {
        "details": "Purchase a MEW product from the store.",
        "params": {
          "quantity": "Units of MEW product inventory being purchased.",
          "sku": "The MEW product's SKU."
        }
      },
      "MEWtoggleContractActive()": {
        "details": "MEW Owner can change contract state in case of emergency."
      },
      "MEWupdateInventoryCount(uint256,uint256)": {
        "details": "Owner can update MEW inventory for a given MEW product.",
        "params": {
          "newInventoryCount": "Updated MEW product inventory count.",
          "sku": "The MEW product's sku."
        }
      },
      "MEWwithdraw()": {
        "details": "MEW Owner can withdraw any funds the store has earned by selling products."
      },
      "constructor": {
        "details": "set sender as person who instantiated the MEW store contract"
      }
    },
    "title": "A simulator Store to trade digital representations of Endangered Wildlife (MEW)"
  },
  "userdoc": {
    "methods": {},
    "notice": "Very basic simulation; using SafeMath for uint256; product as MEWs"
  }
}